S01700004763634170706C69636174696F6E312E737265635B
S11300000C942A000C9444000C945F000C947A0025
S11300100C9434000C9434000C9434000C9434008C
S11300200C9434000C9434000C9434000C9434007C
S11300300C9434000C9434000C9434000C9434006C
S11300400C9434000C9434000C9434000C9434005C
S11300500C94340011241FBECFE5D8E0DEBFCDBF21
S11300600E9436000C9495000C94000081B3806EBD
S113007081BB85B78D6085BF84B78F7B84BF8BB709
S1130080806E8BBF7894FFCF1F920F920FB60F92A2
S113009011242F938F939F93959A2FEF89E698E1DC
S11300A0215080409040E1F700C0000095989F9156
S11300B08F912F910F900FBE0F901F9018951F9244
S11300C00F920FB60F9211242F938F939F93969AAA
S11300D02FEF89E698E1215080409040E1F700C07D
S11300E0000096989F918F912F910F900FBE0F90C3
S11300F01F9018951F920F920FB60F9211242F93F1
S11301008F939F93979A2FEF89E698E1215080402F
S11301109040E1F700C0000097989F918F912F9134
S11101200F900FBE0F901F901895F894FFCF0C
S9030000FC
